:100000000C942A000C943F000C943F000C943F0089
:100010000C943F000C943F000C943F000C943F0064
:100020000C943F000C943F000C943F000C943F0054
:100030000C943F000C943F000C943F000C943F0044
:100040000C943F000C943F000C943F000C943F0034
:100050000C943F0011241FBECFE5D8E0DEBFCDBF1A
:1000600010E0A0E6B0E0E2E5F2E002C005900D92FB
:10007000A03CB107D9F70E94B6000C9427010C945C
:10008000000098B3282F207F9F70292B28BBC09891
:10009000C19A22E0922F9A95F1F7C198E0E9F1E038
:1000A0003197F1F798B38295807F9F70982B98BB1A
:1000B000C19A2A95F1F7C19880EA9FE00197F1F77C
:1000C000089587B3836F87BB81E00E94410082E07F
:1000D0000E94410088E20E94410080E80E944100A5
:1000E0008CE00E94410080EA9FE00197F1F70895BB
:1000F00098B3282F207F9F70292B28BBC09AC19AC4
:1001000022E0922F9A95F1F7C198E0E9F1E031975A
:10011000F1F798B38295807F9F70982B98BBC19A16
:100120002A95F1F7C19880EA9FE00197F1F70895C9
:10013000EF92FF921F93CF93DF93EC0110E080EAE0
:10014000E82E8FE0F82E06C00E947800C7010197C4
:10015000F1F71F5FFE01E10FF11D80818823A1F7F8
:10016000DF91CF911F91FF90EF900895CF92DF9292
:10017000EF92FF921F93DF93CF93CDB7DEB76E97C9
:100180000FB6F894DEBF0FBECDBF0E946100FE0126
:1001900031968EE1DF011D928A95E9F780E690E0C5
:1001A0009A83898384E690E09C838B8388E690E041
:1001B0009E838D838CE690E098878F8383E790E021
:1001C0009A8789878CE790E09C878B8781E890E00D
:1001D0009E878D8789E890E0988B8F878FE890E0E5
:1001E0009A8B898B86E990E09C8B8B8B80EA90E0E0
:1001F0009E8B8D8B8BEA90E0988F8F8B80EB90E0BD
:100200009A8F898F87EB90E09C8F8B8F10E06F0126
:1002100028ECE22EF12C80E80E944100E12FF0E072
:10022000EE0FFF1FEC0DFD1D808191810E94980053
:1002300088E893E1F7013197F1F70197D9F781E069
:100240000E9441001F5F1E3030F310E0E4CFF894AD
:02025000FFCFDE
:10025200416E7400426174004361740044726167CC
:100262006F6E00456C657068616E740046697368F4
:10027200004769726166666500486F72736500497E
:100282006775616E61004A656C6C796669736800B6
:100292004B696E67666973686572004C696F6E00C0
:1002A2004D6F6E6B6579004E61727768616C00000C
:00000001FF
